Component: ARM Compiler 5.06 update 1 (build 61) Tool: armlink [4d35a8]

==============================================================================

Section Cross References

    startup_stm32f103xb.o(RESET) refers to startup_stm32f103xb.o(STACK) for __initial_sp
    startup_stm32f103xb.o(RESET) refers to startup_stm32f103xb.o(.text) for Reset_Handler
    startup_stm32f103xb.o(RESET) refers to stm32f1xx_it.o(i.NMI_Handler) for NMI_Handler
    startup_stm32f103xb.o(RESET) refers to stm32f1xx_it.o(i.HardFault_Handler) for HardFault_Handler
    startup_stm32f103xb.o(RESET) refers to stm32f1xx_it.o(i.MemManage_Handler) for MemManage_Handler
    startup_stm32f103xb.o(RESET) refers to stm32f1xx_it.o(i.BusFault_Handler) for BusFault_Handler
    startup_stm32f103xb.o(RESET) refers to stm32f1xx_it.o(i.UsageFault_Handler) for UsageFault_Handler
    startup_stm32f103xb.o(RESET) refers to stm32f1xx_it.o(i.SVC_Handler) for SVC_Handler
    startup_stm32f103xb.o(RESET) refers to stm32f1xx_it.o(i.DebugMon_Handler) for DebugMon_Handler
    startup_stm32f103xb.o(RESET) refers to stm32f1xx_it.o(i.PendSV_Handler) for PendSV_Handler
    startup_stm32f103xb.o(RESET) refers to stm32f1xx_it.o(i.SysTick_Handler) for SysTick_Handler
    startup_stm32f103xb.o(RESET) refers to stm32f1xx_it.o(i.DMA1_Channel1_IRQHandler) for DMA1_Channel1_IRQHandler
    startup_stm32f103xb.o(RESET) refers to stm32f1xx_it.o(i.TIM2_IRQHandler) for TIM2_IRQHandler
    startup_stm32f103xb.o(.text) refers to system_stm32f1xx.o(i.SystemInit) for SystemInit
    startup_stm32f103xb.o(.text) refers to entry.o(.ARM.Collect$$$$00000000) for __main
    main.o(i.ADC_Test) refers to stm32f1xx_hal_adc.o(i.HAL_ADC_Start_DMA) for HAL_ADC_Start_DMA
    main.o(i.ADC_Test) refers to dfltui.o(.text) for __aeabi_ui2d
    main.o(i.ADC_Test) refers to dmul.o(.text) for __aeabi_dmul
==============================================================================

Removing Unused input sections from the image.

    Removing startup_stm32f103xb.o(HEAP), (512 bytes).
    Removing main.o(.rev16_text), (4 bytes).
    Removing main.o(.revsh_text), (4 bytes).
    Removing main.o(.rrx_text), (6 bytes).
    Removing main.o(i.ADC_Test), (264 bytes).
    Removing main.o(i.Key_Test), (156 bytes).
    Removing main.o(i.Oled_Test), (212 bytes).
    Removing main.o(i.Uart_Test), (136 bytes).
    Removing main.o(.data), (4 bytes).
    Removing main.o(.data), (4 bytes).
    Removing gpio.o(.rev16_text), (4 bytes).
    Removing gpio.o(.revsh_text), (4 bytes).
    Removing gpio.o(.rrx_text), (6 bytes).
    Removing adc.o(.rev16_text), (4 bytes).
    Removing adc.o(.revsh_text), (4 bytes).
    Removing adc.o(.rrx_text), (6 bytes).
    Removing adc.o(i.HAL_ADC_MspDeInit), (56 bytes).
    Removing dma.o(.rev16_text), (4 bytes).
==============================================================================

Image Symbol Table

    Local Symbols

    Symbol Name                              Value     Ov Type        Size  Object(Section)

    ../Core/Src/adc.c                        0x00000000   Number         0  adc.o ABSOLUTE
    ../Core/Src/dma.c                        0x00000000   Number         0  dma.o ABSOLUTE
    ../Core/Src/gpio.c                       0x00000000   Number         0  gpio.o ABSOLUTE
    ../Core/Src/i2c.c                        0x00000000   Number         0  i2c.o ABSOLUTE
    ../Core/Src/main.c                       0x00000000   Number         0  main.o ABSOLUTE
    ../Core/Src/stm32f1xx_hal_msp.c          0x00000000   Number         0  stm32f1xx_hal_msp.o ABSOLUTE
    ../Core/Src/stm32f1xx_it.c               0x00000000   Number         0  stm32f1xx_it.o ABSOLUTE
    ../Core/Src/system_stm32f1xx.c           0x00000000   Number         0  system_stm32f1xx.o ABSOLUTE
    ../Core/Src/tim.c                        0x00000000   Number         0  tim.o ABSOLUTE
    ../Core/Src/usart.c                      0x00000000   Number         0  usart.o ABSOLUTE
    ../clib/microlib/division.c              0x00000000   Number         0  uidiv.o ABSOLUTE
    ../clib/microlib/division.c              0x00000000   Number         0  uldiv.o ABSOLUTE
    ../clib/microlib/init/entry.s            0x00000000   Number         0  entry9b.o ABSOLUTE
    ../clib/microlib/init/entry.s            0x00000000   Number         0  entry10b.o ABSOLUTE
    ../clib/microlib/init/entry.s            0x00000000   Number         0  entry11a.o ABSOLUTE
    ../clib/microlib/init/entry.s            0x00000000   Number         0  entry2.o ABSOLUTE
    ../clib/microlib/init/entry.s            0x00000000   Number         0  entry11b.o ABSOLUTE
    ../clib/microlib/init/entry.s            0x00000000   Number         0  entry10a.o ABSOLUTE
    ../clib/microlib/init/entry.s            0x00000000   Number         0  entry.o ABSOLUTE
    ../clib/microlib/init/entry.s            0x00000000   Number         0  entry5.o ABSOLUTE
    ../clib/microlib/init/entry.s            0x00000000   Number         0  entry7a.o ABSOLUTE
    ../clib/microlib/init/entry.s            0x00000000   Number         0  entry7b.o ABSOLUTE
    ../clib/microlib/init/entry.s            0x00000000   Number         0  entry8a.o ABSOLUTE
    ../clib/microlib/init/entry.s            0x00000000   Number         0  entry8b.o ABSOLUTE
    ../clib/microlib/init/entry.s            0x00000000   Number         0  entry9a.o ABSOLUTE
    ../clib/microlib/longlong.c              0x00000000   Number         0  llushr.o ABSOLUTE
    ../clib/microlib/longlong.c              0x00000000   Number         0  llshl.o ABSOLUTE
    ../clib/microlib/longlong.c              0x00000000   Number         0  llsshr.o ABSOLUTE
    ../clib/microlib/printf/printf.c         0x00000000   Number         0  printfa.o ABSOLUTE
    ../clib/microlib/printf/printf.c         0x00000000   Number         0  printf8.o ABSOLUTE
    ../clib/microlib/printf/printf.c         0x00000000   Number         0  printf6.o ABSOLUTE
    ../clib/microlib/printf/printf.c         0x00000000   Number         0  printf3.o ABSOLUTE
    ../clib/microlib/printf/printf.c         0x00000000   Number         0  printf1.o ABSOLUTE
    ../clib/microlib/printf/printf.c         0x00000000   Number         0  printf0.o ABSOLUTE
    ../clib/microlib/printf/printf.c         0x00000000   Number         0  printfb.o ABSOLUTE
    ../clib/microlib/printf/printf.c         0x00000000   Number         0  printf2.o ABSOLUTE
    ../clib/microlib/printf/printf.c         0x00000000   Number         0  printf4.o ABSOLUTE
    ../clib/microlib/printf/printf.c         0x00000000   Number         0  printf7.o ABSOLUTE
    ../clib/microlib/printf/printf.c         0x00000000   Number         0  printf5.o ABSOLUTE
    ../clib/microlib/printf/stubs.s          0x00000000   Number         0  stubs.o ABSOLUTE
    ../clib/microlib/stdio/streams.c         0x00000000   Number         0  stdout.o ABSOLUTE
    ../clib/microlib/string/memset.c         0x00000000   Number         0  memseta.o ABSOLUTE
    ../clib/microlib/stubs.s                 0x00000000   Number         0  iusefp.o ABSOLUTE
    ../fplib/microlib/d2f.c                  0x00000000   Number         0  d2f.o ABSOLUTE
    ../fplib/microlib/f2d.c                  0x00000000   Number         0  f2d.o ABSOLUTE
    ../fplib/microlib/fpadd.c                0x00000000   Number         0  dadd.o ABSOLUTE
    ../fplib/microlib/fpadd.c                0x00000000   Number         0  fadd.o ABSOLUTE
    ../fplib/microlib/fpdiv.c                0x00000000   Number         0  ddiv.o ABSOLUTE
    ../fplib/microlib/fpdiv.c                0x00000000   Number         0  fdiv.o ABSOLUTE
    ../fplib/microlib/fpepilogue.c           0x00000000   Number         0  fepilogue.o ABSOLUTE
    ../fplib/microlib/fpepilogue.c           0x00000000   Number         0  depilogue.o ABSOLUTE
    ../fplib/microlib/fpfix.c                0x00000000   Number         0  dfixul.o ABSOLUTE
    ../fplib/microlib/fpfix.c                0x00000000   Number         0  ffixi.o ABSOLUTE
    ../fplib/microlib/fpflt.c                0x00000000   Number         0  fflti.o ABSOLUTE
    ../fplib/microlib/fpflt.c                0x00000000   Number         0  dfltui.o ABSOLUTE
    ../fplib/microlib/fpmul.c                0x00000000   Number         0  dmul.o ABSOLUTE
    ../fplib/microlib/fpmul.c                0x00000000   Number         0  fmul.o ABSOLUTE
    ../fplib/microlib/fpscalb.c              0x00000000   Number         0  fscalb.o ABSOLUTE
    ../fplib/microlib/fpscalb.c              0x00000000   Number         0  dscalb.o ABSOLUTE
    ..\Core\Src\adc.c                        0x00000000   Number         0  adc.o ABSOLUTE
    ..\Core\Src\dma.c                        0x00000000   Number         0  dma.o ABSOLUTE
    ..\Core\Src\gpio.c                       0x00000000   Number         0  gpio.o ABSOLUTE
    ..\Core\Src\i2c.c                        0x00000000   Number         0  i2c.o ABSOLUTE
    ..\Core\Src\main.c                       0x00000000   Number         0  main.o ABSOLUTE
    ..\Core\Src\stm32f1xx_hal_msp.c          0x00000000   Number         0  stm32f1xx_hal_msp.o ABSOLUTE
    ..\Core\Src\stm32f1xx_it.c               0x00000000   Number         0  stm32f1xx_it.o ABSOLUTE
    ..\Core\Src\system_stm32f1xx.c           0x00000000   Number         0  system_stm32f1xx.o ABSOLUTE
    ..\Core\Src\tim.c                        0x00000000   Number         0  tim.o ABSOLUTE
    ..\Core\Src\usart.c                      0x00000000   Number         0  usart.o ABSOLUTE
    ..\Hardware\Src\oled.c                   0x00000000   Number         0  oled.o ABSOLUTE
    ..\Hardware\Src\pid.c                    0x00000000   Number         0  pid.o ABSOLUTE
    ..\\Hardware\\Src\\oled.c                0x00000000   Number         0  oled.o ABSOLUTE
    ..\\Hardware\\Src\\pid.c                 0x00000000   Number         0  pid.o ABSOLUTE
    C:/Users/win10/STM32Cube/Repository/STM32Cube_FW_F1_V1.8.4/Drivers/STM32F1xx_HAL_Driver/Src/stm32f1xx_hal.c 0x00000000   Number         0  stm32f1xx_hal.o ABSOLUTE
    C:/Users/win10/STM32Cube/Repository/STM32Cube_FW_F1_V1.8.4/Drivers/STM32F1xx_HAL_Driver/Src/stm32f1xx_hal_adc.c 0x00000000   Number         0  stm32f1xx_hal_adc.o ABSOLUTE
    C:/Users/win10/STM32Cube/Repository/STM32Cube_FW_F1_V1.8.4/Drivers/STM32F1xx_HAL_Driver/Src/stm32f1xx_hal_adc_ex.c 0x00000000   Number         0  stm32f1xx_hal_adc_ex.o ABSOLUTE
    C:/Users/win10/STM32Cube/Repository/STM32Cube_FW_F1_V1.8.4/Drivers/STM32F1xx_HAL_Driver/Src/stm32f1xx_hal_cortex.c 0x00000000   Number         0  stm32f1xx_hal_cortex.o ABSOLUTE
    C:/Users/win10/STM32Cube/Repository/STM32Cube_FW_F1_V1.8.4/Drivers/STM32F1xx_HAL_Driver/Src/stm32f1xx_hal_dma.c 0x00000000   Number         0  stm32f1xx_hal_dma.o ABSOLUTE
    C:/Users/win10/STM32Cube/Repository/STM32Cube_FW_F1_V1.8.4/Drivers/STM32F1xx_HAL_Driver/Src/stm32f1xx_hal_exti.c 0x00000000   Number         0  stm32f1xx_hal_exti.o ABSOLUTE
    C:/Users/win10/STM32Cube/Repository/STM32Cube_FW_F1_V1.8.4/Drivers/STM32F1xx_HAL_Driver/Src/stm32f1xx_hal_flash.c 0x00000000   Number         0  stm32f1xx_hal_flash.o ABSOLUTE
    C:/Users/win10/STM32Cube/Repository/STM32Cube_FW_F1_V1.8.4/Drivers/STM32F1xx_HAL_Driver/Src/stm32f1xx_hal_flash_ex.c 0x00000000   Number         0  stm32f1xx_hal_flash_ex.o ABSOLUTE
    C:/Users/win10/STM32Cube/Repository/STM32Cube_FW_F1_V1.8.4/Drivers/STM32F1xx_HAL_Driver/Src/stm32f1xx_hal_gpio.c 0x00000000   Number         0  stm32f1xx_hal_gpio.o ABSOLUTE
    C:/Users/win10/STM32Cube/Repository/STM32Cube_FW_F1_V1.8.4/Drivers/STM32F1xx_HAL_Driver/Src/stm32f1xx_hal_gpio_ex.c 0x00000000   Number         0  stm32f1xx_hal_gpio_ex.o ABSOLUTE
    C:/Users/win10/STM32Cube/Repository/STM32Cube_FW_F1_V1.8.4/Drivers/STM32F1xx_HAL_Driver/Src/stm32f1xx_hal_i2c.c 0x00000000   Number         0  stm32f1xx_hal_i2c.o ABSOLUTE
    C:/Users/win10/STM32Cube/Repository/STM32Cube_FW_F1_V1.8.4/Drivers/STM32F1xx_HAL_Driver/Src/stm32f1xx_hal_pwr.c 0x00000000   Number         0  stm32f1xx_hal_pwr.o ABSOLUTE
    C:/Users/win10/STM32Cube/Repository/STM32Cube_FW_F1_V1.8.4/Drivers/STM32F1xx_HAL_Driver/Src/stm32f1xx_hal_rcc.c 0x00000000   Number         0  stm32f1xx_hal_rcc.o ABSOLUTE
    C:/Users/win10/STM32Cube/Repository/STM32Cube_FW_F1_V1.8.4/Drivers/STM32F1xx_HAL_Driver/Src/stm32f1xx_hal_rcc_ex.c 0x00000000   Number         0  stm32f1xx_hal_rcc_ex.o ABSOLUTE
    C:/Users/win10/STM32Cube/Repository/STM32Cube_FW_F1_V1.8.4/Drivers/STM32F1xx_HAL_Driver/Src/stm32f1xx_hal_tim.c 0x00000000   Number         0  stm32f1xx_hal_tim.o ABSOLUTE
    C:/Users/win10/STM32Cube/Repository/STM32Cube_FW_F1_V1.8.4/Drivers/STM32F1xx_HAL_Driver/Src/stm32f1xx_hal_tim_ex.c 0x00000000   Number         0  stm32f1xx_hal_tim_ex.o ABSOLUTE
    C:/Users/win10/STM32Cube/Repository/STM32Cube_FW_F1_V1.8.4/Drivers/STM32F1xx_HAL_Driver/Src/stm32f1xx_hal_uart.c 0x00000000   Number         0  stm32f1xx_hal_uart.o ABSOLUTE
    C:\Users\win10\STM32Cube\Repository\STM32Cube_FW_F1_V1.8.4\Drivers\STM32F1xx_HAL_Driver\Src\stm32f1xx_hal.c 0x00000000   Number         0  stm32f1xx_hal.o ABSOLUTE
    C:\Users\win10\STM32Cube\Repository\STM32Cube_FW_F1_V1.8.4\Drivers\STM32F1xx_HAL_Driver\Src\stm32f1xx_hal_adc.c 0x00000000   Number         0  stm32f1xx_hal_adc.o ABSOLUTE
    C:\Users\win10\STM32Cube\Repository\STM32Cube_FW_F1_V1.8.4\Drivers\STM32F1xx_HAL_Driver\Src\stm32f1xx_hal_adc_ex.c 0x00000000   Number         0  stm32f1xx_hal_adc_ex.o ABSOLUTE
    C:\Users\win10\STM32Cube\Repository\STM32Cube_FW_F1_V1.8.4\Drivers\STM32F1xx_HAL_Driver\Src\stm32f1xx_hal_cortex.c 0x00000000   Number         0  stm32f1xx_hal_cortex.o ABSOLUTE
    C:\Users\win10\STM32Cube\Repository\STM32Cube_FW_F1_V1.8.4\Drivers\STM32F1xx_HAL_Driver\Src\stm32f1xx_hal_dma.c 0x00000000   Number         0  stm32f1xx_hal_dma.o ABSOLUTE
    C:\Users\win10\STM32Cube\Repository\STM32Cube_FW_F1_V1.8.4\Drivers\STM32F1xx_HAL_Driver\Src\stm32f1xx_hal_exti.c 0x00000000   Number         0  stm32f1xx_hal_exti.o ABSOLUTE
    C:\Users\win10\STM32Cube\Repository\STM32Cube_FW_F1_V1.8.4\Drivers\STM32F1xx_HAL_Driver\Src\stm32f1xx_hal_flash.c 0x00000000   Number         0  stm32f1xx_hal_flash.o ABSOLUTE
    C:\Users\win10\STM32Cube\Repository\STM32Cube_FW_F1_V1.8.4\Drivers\STM32F1xx_HAL_Driver\Src\stm32f1xx_hal_flash_ex.c 0x00000000   Number         0  stm32f1xx_hal_flash_ex.o ABSOLUTE
    C:\Users\win10\STM32Cube\Repository\STM32Cube_FW_F1_V1.8.4\Drivers\STM32F1xx_HAL_Driver\Src\stm32f1xx_hal_gpio.c 0x00000000   Number         0  stm32f1xx_hal_gpio.o ABSOLUTE
    C:\Users\win10\STM32Cube\Repository\STM32Cube_FW_F1_V1.8.4\Drivers\STM32F1xx_HAL_Driver\Src\stm32f1xx_hal_gpio_ex.c 0x00000000   Number         0  stm32f1xx_hal_gpio_ex.o ABSOLUTE
    C:\Users\win10\STM32Cube\Repository\STM32Cube_FW_F1_V1.8.4\Drivers\STM32F1xx_HAL_Driver\Src\stm32f1xx_hal_i2c.c 0x00000000   Number         0  stm32f1xx_hal_i2c.o ABSOLUTE
    C:\Users\win10\STM32Cube\Repository\STM32Cube_FW_F1_V1.8.4\Drivers\STM32F1xx_HAL_Driver\Src\stm32f1xx_hal_pwr.c 0x00000000   Number         0  stm32f1xx_hal_pwr.o ABSOLUTE
    C:\Users\win10\STM32Cube\Repository\STM32Cube_FW_F1_V1.8.4\Drivers\STM32F1xx_HAL_Driver\Src\stm32f1xx_hal_rcc.c 0x00000000   Number         0  stm32f1xx_hal_rcc.o ABSOLUTE
    C:\Users\win10\STM32Cube\Repository\STM32Cube_FW_F1_V1.8.4\Drivers\STM32F1xx_HAL_Driver\Src\stm32f1xx_hal_rcc_ex.c 0x00000000   Number         0  stm32f1xx_hal_rcc_ex.o ABSOLUTE
    C:\Users\win10\STM32Cube\Repository\STM32Cube_FW_F1_V1.8.4\Drivers\STM32F1xx_HAL_Driver\Src\stm32f1xx_hal_tim.c 0x00000000   Number         0  stm32f1xx_hal_tim.o ABSOLUTE
    C:\Users\win10\STM32Cube\Repository\STM32Cube_FW_F1_V1.8.4\Drivers\STM32F1xx_HAL_Driver\Src\stm32f1xx_hal_tim_ex.c 0x00000000   Number         0  stm32f1xx_hal_tim_ex.o ABSOLUTE
    C:\Users\win10\STM32Cube\Repository\STM32Cube_FW_F1_V1.8.4\Drivers\STM32F1xx_HAL_Driver\Src\stm32f1xx_hal_uart.c 0x00000000   Number         0  stm32f1xx_hal_uart.o ABSOLUTE
    cdrcmple.s                               0x00000000   Number         0  cdrcmple.o ABSOLUTE
    dc.s                                     0x00000000   Number         0  dc.o ABSOLUTE
    handlers.s                               0x00000000   Number         0  handlers.o ABSOLUTE
    init.s                                   0x00000000   Number         0  init.o ABSOLUTE
    startup_stm32f103xb.s                    0x00000000   Number         0  startup_stm32f103xb.o ABSOLUTE
    RESET                                    0x08000000   Section      236  startup_stm32f103xb.o(RESET)
    .ARM.Collect$$$$00000000                 0x080000ec   Section        0  entry.o(.ARM.Collect$$$$00000000)
    .ARM.Collect$$$$00000001                 0x080000ec   Section        4  entry2.o(.ARM.Collect$$$$00000001)
    .ARM.Collect$$$$00000004                 0x080000f0   Section        4  entry5.o(.ARM.Collect$$$$00000004)
    .ARM.Collect$$$$00000008                 0x080000f4   Section        0  entry7b.o(.ARM.Collect$$$$00000008)
    .ARM.Collect$$$$0000000A                 0x080000f4   Section        0  entry8b.o(.ARM.Collect$$$$0000000A)
    .ARM.Collect$$$$0000000B                 0x080000f4   Section        8  entry9a.o(.ARM.Collect$$$$0000000B)
    .ARM.Collect$$$$0000000D                 0x080000fc   Section        0  entry10a.o(.ARM.Collect$$$$0000000D)
    .ARM.Collect$$$$0000000F                 0x080000fc   Section        0  entry11a.o(.ARM.Collect$$$$0000000F)
    .ARM.Collect$$$$00002712                 0x080000fc   Section        4  entry2.o(.ARM.Collect$$$$00002712)
    __lit__00000000                          0x080000fc   Data           4  entry2.o(.ARM.Collect$$$$00002712)
    .text                                    0x08000100   Section       36  startup_stm32f103xb.o(.text)
    .text                                    0x08000124   Section        0  llushr.o(.text)
    .text                                    0x08000144   Section        0  memseta.o(.text)
    .text                                    0x08000168   Section        0  fadd.o(.text)
    .text                                    0x08000218   Section        0  fmul.o(.text)
    .text                                    0x0800027c   Section        0  fdiv.o(.text)
    .text                                    0x080002f8   Section        0  fscalb.o(.text)
    .text                                    0x08000310   Section        0  dadd.o(.text)
    .text                                    0x0800045e   Section        0  dmul.o(.text)
    .text                                    0x08000542   Section        0  dscalb.o(.text)
    .text                                    0x08000570   Section        0  dfltui.o(.text)
    .text                                    0x0800058a   Section        0  ffixi.o(.text)
    .text                                    0x080005bc   Section        0  f2d.o(.text)
    .text                                    0x080005e2   Section        0  d2f.o(.text)
    .text                                    0x0800061a   Section        0  uidiv.o(.text)
    .text                                    0x08000646   Section        0  uldiv.o(.text)
    .text                                    0x080006a8   Section        0  llshl.o(.text)
    .text                                    0x080006c6   Section        0  llsshr.o(.text)
    .text                                    0x080006ea   Section        0  iusefp.o(.text)
    .text                                    0x080006ea   Section        0  fepilogue.o(.text)
    .text                                    0x08000758   Section        0  depilogue.o(.text)
    .text                                    0x08000812   Section        0  ddiv.o(.text)
    .text                                    0x080008f0   Section        0  dfixul.o(.text)
    .text                                    0x08000920   Section       48  cdrcmple.o(.text)
    .text                                    0x08000950   Section       36  init.o(.text)
    i.ADC_ConversionStop_Disable             0x08000974   Section        0  stm32f1xx_hal_adc.o(i.ADC_ConversionStop_Disable)
    i.ADC_DMAConvCplt                        0x080009ca   Section        0  stm32f1xx_hal_adc.o(i.ADC_DMAConvCplt)
    i.ADC_DMAError                           0x08000a18   Section        0  stm32f1xx_hal_adc.o(i.ADC_DMAError)
    i.ADC_DMAHalfConvCplt                    0x08000a32   Section        0  stm32f1xx_hal_adc.o(i.ADC_DMAHalfConvCplt)
    i.ADC_Enable                             0x08000a3c   Section        0  stm32f1xx_hal_adc.o(i.ADC_Enable)
    i.Add_pid_update                         0x08000ab8   Section        0  pid.o(i.Add_pid_update)
    i.BusFault_Handler                       0x08000b12   Section        0  stm32f1xx_it.o(i.BusFault_Handler)
    i.DMA1_Channel1_IRQHandler               0x08000b14   Section        0  stm32f1xx_it.o(i.DMA1_Channel1_IRQHandler)
    i.DMA_SetConfig                          0x08000b20   Section        0  stm32f1xx_hal_dma.o(i.DMA_SetConfig)
    DMA_SetConfig                            0x08000b21   Thumb Code    42  stm32f1xx_hal_dma.o(i.DMA_SetConfig)
    i.DebugMon_Handler                       0x08000b4a   Section        0  stm32f1xx_it.o(i.DebugMon_Handler)
    i.Error_Handler                          0x08000b4c   Section        0  main.o(i.Error_Handler)
    i.HAL_ADCEx_Calibration_Start            0x08000b50   Section        0  stm32f1xx_hal_adc_ex.o(i.HAL_ADCEx_Calibration_Start)
    i.HAL_ADC_ConfigChannel                  0x08000c28   Section        0  stm32f1xx_hal_adc.o(i.HAL_ADC_ConfigChannel)
    i.HAL_ADC_ConvCpltCallback               0x08000d24   Section        0  stm32f1xx_hal_adc.o(i.HAL_ADC_ConvCpltCallback)
    i.HAL_ADC_ConvHalfCpltCallback           0x08000d26   Section        0  stm32f1xx_hal_adc.o(i.HAL_ADC_ConvHalfCpltCallback)
    i.HAL_ADC_ErrorCallback                  0x08000d28   Section        0  stm32f1xx_hal_adc.o(i.HAL_ADC_ErrorCallback)
    i.HAL_ADC_Init                           0x08000d2c   Section        0  stm32f1xx_hal_adc.o(i.HAL_ADC_Init)
    i.HAL_ADC_MspInit                        0x08000e48   Section        0  adc.o(i.HAL_ADC_MspInit)
    i.HAL_ADC_Start_DMA                      0x08000ed8   Section        0  stm32f1xx_hal_adc.o(i.HAL_ADC_Start_DMA)
    i.HAL_DMA_IRQHandler                     0x08000fe4   Section        0  stm32f1xx_hal_dma.o(i.HAL_DMA_IRQHandler)
    i.HAL_DMA_Init                           0x08001138   Section        0  stm32f1xx_hal_dma.o(i.HAL_DMA_Init)
    i.HAL_DMA_Start_IT                       0x08001194   Section        0  stm32f1xx_hal_dma.o(i.HAL_DMA_Start_IT)
    i.HAL_Delay                              0x08001204   Section        0  stm32f1xx_hal.o(i.HAL_Delay)
    i.HAL_GPIO_Init                          0x08001228   Section        0  stm32f1xx_hal_gpio.o(i.HAL_GPIO_Init)
    i.HAL_GPIO_WritePin                      0x08001408   Section        0  stm32f1xx_hal_gpio.o(i.HAL_GPIO_WritePin)
    i.HAL_GetTick                            0x08001414   Section        0  stm32f1xx_hal.o(i.HAL_GetTick)
    i.HAL_I2C_Init                           0x08001420   Section        0  stm32f1xx_hal_i2c.o(i.HAL_I2C_Init)
    i.HAL_I2C_MspInit                        0x080015a8   Section        0  i2c.o(i.HAL_I2C_MspInit)
    i.HAL_IncTick                            0x08001618   Section        0  stm32f1xx_hal.o(i.HAL_IncTick)
    i.HAL_Init                               0x08001628   Section        0  stm32f1xx_hal.o(i.HAL_Init)
    i.HAL_InitTick                           0x0800164c   Section        0  stm32f1xx_hal.o(i.HAL_InitTick)
    i.HAL_MspInit                            0x0800168c   Section        0  stm32f1xx_hal_msp.o(i.HAL_MspInit)
    i.HAL_NVIC_EnableIRQ                     0x080016c8   Section        0  stm32f1xx_hal_cortex.o(i.HAL_NVIC_EnableIRQ)
    i.HAL_NVIC_SetPriority                   0x080016e4   Section        0  stm32f1xx_hal_cortex.o(i.HAL_NVIC_SetPriority)
    i.HAL_NVIC_SetPriorityGrouping           0x08001724   Section        0  stm32f1xx_hal_cortex.o(i.HAL_NVIC_SetPriorityGrouping)
    i.HAL_RCCEx_GetPeriphCLKFreq             0x08001748   Section        0  stm32f1xx_hal_rcc_ex.o(i.HAL_RCCEx_GetPeriphCLKFreq)
    i.HAL_RCCEx_PeriphCLKConfig              0x08001810   Section        0  stm32f1xx_hal_rcc_ex.o(i.HAL_RCCEx_PeriphCLKConfig)
    i.HAL_RCC_ClockConfig                    0x080018fc   Section        0  stm32f1xx_hal_rcc.o(i.HAL_RCC_ClockConfig)
    i.HAL_RCC_GetPCLK1Freq                   0x08001a28   Section        0  stm32f1xx_hal_rcc.o(i.HAL_RCC_GetPCLK1Freq)
    i.HAL_RCC_GetPCLK2Freq                   0x08001a48   Section        0  stm32f1xx_hal_rcc.o(i.HAL_RCC_GetPCLK2Freq)
    i.HAL_RCC_GetSysClockFreq                0x08001a68   Section        0  stm32f1xx_hal_rcc.o(i.HAL_RCC_GetSysClockFreq)
    i.HAL_RCC_OscConfig                      0x08001ad4   Section        0  stm32f1xx_hal_rcc.o(i.HAL_RCC_OscConfig)
    i.HAL_SYSTICK_Config                     0x08001df4   Section        0  stm32f1xx_hal_cortex.o(i.HAL_SYSTICK_Config)
    i.HAL_TIMEx_BreakCallback                0x08001e1c   Section        0  stm32f1xx_hal_tim_ex.o(i.HAL_TIMEx_BreakCallback)
    i.HAL_TIMEx_CommutCallback               0x08001e1e   Section        0  stm32f1xx_hal_tim_ex.o(i.HAL_TIMEx_CommutCallback)
    i.HAL_TIMEx_ConfigBreakDeadTime          0x08001e20   Section        0  stm32f1xx_hal_tim_ex.o(i.HAL_TIMEx_ConfigBreakDeadTime)
    i.HAL_TIMEx_MasterConfigSynchronization  0x08001e74   Section        0  stm32f1xx_hal_tim_ex.o(i.HAL_TIMEx_MasterConfigSynchronization)
    i.HAL_TIM_Base_Init                      0x08001edc   Section        0  stm32f1xx_hal_tim.o(i.HAL_TIM_Base_Init)
    i.HAL_TIM_Base_MspInit                   0x08001f38   Section        0  tim.o(i.HAL_TIM_Base_MspInit)
    i.HAL_TIM_Base_Start_IT                  0x08001fa4   Section        0  stm32f1xx_hal_tim.o(i.HAL_TIM_Base_Start_IT)
    i.HAL_TIM_ConfigClockSource              0x08001ffc   Section        0  stm32f1xx_hal_tim.o(i.HAL_TIM_ConfigClockSource)
    i.HAL_TIM_IC_CaptureCallback             0x080020d2   Section        0  stm32f1xx_hal_tim.o(i.HAL_TIM_IC_CaptureCallback)
    i.HAL_TIM_IRQHandler                     0x080020d4   Section        0  stm32f1xx_hal_tim.o(i.HAL_TIM_IRQHandler)
    i.HAL_TIM_MspPostInit                    0x0800223c   Section        0  tim.o(i.HAL_TIM_MspPostInit)
    i.HAL_TIM_OC_DelayElapsedCallback        0x080022a4   Section        0  stm32f1xx_hal_tim.o(i.HAL_TIM_OC_DelayElapsedCallback)
    i.HAL_TIM_PWM_ConfigChannel              0x080022a6   Section        0  stm32f1xx_hal_tim.o(i.HAL_TIM_PWM_ConfigChannel)
    i.HAL_TIM_PWM_Init                       0x0800236c   Section        0  stm32f1xx_hal_tim.o(i.HAL_TIM_PWM_Init)
    i.HAL_TIM_PWM_MspInit                    0x080023c6   Section        0  stm32f1xx_hal_tim.o(i.HAL_TIM_PWM_MspInit)
    i.HAL_TIM_PWM_PulseFinishedCallback      0x080023c8   Section        0  stm32f1xx_hal_tim.o(i.HAL_TIM_PWM_PulseFinishedCallback)
    i.HAL_TIM_PWM_Start                      0x080023cc   Section        0  stm32f1xx_hal_tim.o(i.HAL_TIM_PWM_Start)
    i.HAL_TIM_PeriodElapsedCallback          0x08002468   Section        0  main.o(i.HAL_TIM_PeriodElapsedCallback)
    i.HAL_TIM_TriggerCallback                0x080025f8   Section        0  stm32f1xx_hal_tim.o(i.HAL_TIM_TriggerCallback)
    i.HAL_UART_Init                          0x080025fa   Section        0  stm32f1xx_hal_uart.o(i.HAL_UART_Init)
    i.HAL_UART_MspInit                       0x0800265c   Section        0  usart.o(i.HAL_UART_MspInit)
    i.HAL_UART_Transmit                      0x080026dc   Section        0  stm32f1xx_hal_uart.o(i.HAL_UART_Transmit)
    i.HardFault_Handler                      0x0800278e   Section        0  stm32f1xx_it.o(i.HardFault_Handler)
    i.IIC_Start                              0x08002790   Section        0  oled.o(i.IIC_Start)
    i.IIC_Stop                               0x080027c8   Section        0  oled.o(i.IIC_Stop)
    i.IIC_Wait_Ack                           0x080027f4   Section        0  oled.o(i.IIC_Wait_Ack)
    i.MX_ADC1_Init                           0x08002818   Section        0  adc.o(i.MX_ADC1_Init)
    i.MX_DMA_Init                            0x080028a4   Section        0  dma.o(i.MX_DMA_Init)
    i.MX_GPIO_Init                           0x080028d0   Section        0  gpio.o(i.MX_GPIO_Init)
    i.MX_I2C1_Init                           0x08002994   Section        0  i2c.o(i.MX_I2C1_Init)
    i.MX_TIM1_Init                           0x080029d4   Section        0  tim.o(i.MX_TIM1_Init)
    i.MX_TIM2_Init                           0x08002a9c   Section        0  tim.o(i.MX_TIM2_Init)
    i.MX_TIM3_Init                           0x08002b00   Section        0  tim.o(i.MX_TIM3_Init)
    i.MX_USART1_UART_Init                    0x08002b98   Section        0  usart.o(i.MX_USART1_UART_Init)
    i.MemManage_Handler                      0x08002bd0   Section        0  stm32f1xx_it.o(i.MemManage_Handler)
    i.NMI_Handler                            0x08002bd2   Section        0  stm32f1xx_it.o(i.NMI_Handler)
    i.OLED_Clear                             0x08002bd4   Section        0  oled.o(i.OLED_Clear)
    i.OLED_Init                              0x08002c10   Section        0  oled.o(i.OLED_Init)
    i.OLED_Set_Pos                           0x08002d48   Section        0  oled.o(i.OLED_Set_Pos)
    i.OLED_ShowChar                          0x08002d74   Section        0  oled.o(i.OLED_ShowChar)
    i.OLED_ShowString                        0x08002dfc   Section        0  oled.o(i.OLED_ShowString)
    i.OLED_WR_Byte                           0x08002e32   Section        0  oled.o(i.OLED_WR_Byte)
    i.PendSV_Handler                         0x08002e3e   Section        0  stm32f1xx_it.o(i.PendSV_Handler)
    i.SVC_Handler                            0x08002e40   Section        0  stm32f1xx_it.o(i.SVC_Handler)
    i.Set_Tim3_Duty                          0x08002e42   Section        0  tim.o(i.Set_Tim3_Duty)
    i.SysTick_Handler                        0x08002e48   Section        0  stm32f1xx_it.o(i.SysTick_Handler)
    i.SystemClock_Config                     0x08002e4c   Section        0  main.o(i.SystemClock_Config)
    i.SystemInit                             0x08002ec4   Section        0  system_stm32f1xx.o(i.SystemInit)
    i.TIM2_IRQHandler                        0x08002ec8   Section        0  stm32f1xx_it.o(i.TIM2_IRQHandler)
    i.TIM_Base_SetConfig                     0x08002ed4   Section        0  stm32f1xx_hal_tim.o(i.TIM_Base_SetConfig)
    i.TIM_CCxChannelCmd                      0x08002f40   Section        0  stm32f1xx_hal_tim.o(i.TIM_CCxChannelCmd)
    i.TIM_ETR_SetConfig                      0x08002f5a   Section        0  stm32f1xx_hal_tim.o(i.TIM_ETR_SetConfig)
    i.TIM_ITRx_SetConfig                     0x08002f6e   Section        0  stm32f1xx_hal_tim.o(i.TIM_ITRx_SetConfig)
    TIM_ITRx_SetConfig                       0x08002f6f   Thumb Code    16  stm32f1xx_hal_tim.o(i.TIM_ITRx_SetConfig)
    i.TIM_OC1_SetConfig                      0x08002f80   Section        0  stm32f1xx_hal_tim.o(i.TIM_OC1_SetConfig)
    TIM_OC1_SetConfig                        0x08002f81   Thumb Code    74  stm32f1xx_hal_tim.o(i.TIM_OC1_SetConfig)
    i.TIM_OC2_SetConfig                      0x08002fd0   Section        0  stm32f1xx_hal_tim.o(i.TIM_OC2_SetConfig)
    i.TIM_OC3_SetConfig                      0x08003028   Section        0  stm32f1xx_hal_tim.o(i.TIM_OC3_SetConfig)
    TIM_OC3_SetConfig                        0x08003029   Thumb Code    82  stm32f1xx_hal_tim.o(i.TIM_OC3_SetConfig)
    i.TIM_OC4_SetConfig                      0x08003080   Section        0  stm32f1xx_hal_tim.o(i.TIM_OC4_SetConfig)
    TIM_OC4_SetConfig                        0x08003081   Thumb Code    64  stm32f1xx_hal_tim.o(i.TIM_OC4_SetConfig)
    i.TIM_TI1_ConfigInputStage               0x080030c4   Section        0  stm32f1xx_hal_tim.o(i.TIM_TI1_ConfigInputStage)
    TIM_TI1_ConfigInputStage                 0x080030c5   Thumb Code    34  stm32f1xx_hal_tim.o(i.TIM_TI1_ConfigInputStage)
    i.TIM_TI2_ConfigInputStage               0x080030e6   Section        0  stm32f1xx_hal_tim.o(i.TIM_TI2_ConfigInputStage)
    TIM_TI2_ConfigInputStage                 0x080030e7   Thumb Code    36  stm32f1xx_hal_tim.o(i.TIM_TI2_ConfigInputStage)
    i.UART_SetConfig                         0x0800310c   Section        0  stm32f1xx_hal_uart.o(i.UART_SetConfig)
    UART_SetConfig                           0x0800310d   Thumb Code   178  stm32f1xx_hal_uart.o(i.UART_SetConfig)
    i.UART_WaitOnFlagUntilTimeout            0x080031c4   Section        0  stm32f1xx_hal_uart.o(i.UART_WaitOnFlagUntilTimeout)
    UART_WaitOnFlagUntilTimeout              0x080031c5   Thumb Code   100  stm32f1xx_hal_uart.o(i.UART_WaitOnFlagUntilTimeout)
    i.UsageFault_Handler                     0x08003228   Section        0  stm32f1xx_it.o(i.UsageFault_Handler)
    i.Write_IIC_Byte                         0x0800322c   Section        0  oled.o(i.Write_IIC_Byte)
    i.Write_IIC_Command                      0x08003288   Section        0  oled.o(i.Write_IIC_Command)
    i.Write_IIC_Data                         0x080032b6   Section        0  oled.o(i.Write_IIC_Data)
    i.__0printf                              0x080032e4   Section        0  printfa.o(i.__0printf)
    i.__0sprintf                             0x08003304   Section        0  printfa.o(i.__0sprintf)
    i.__NVIC_SetPriority                     0x0800332c   Section        0  stm32f1xx_hal_cortex.o(i.__NVIC_SetPriority)
    __NVIC_SetPriority                       0x0800332d   Thumb Code    32  stm32f1xx_hal_cortex.o(i.__NVIC_SetPriority)
    i.__scatterload_copy                     0x0800334c   Section       14  handlers.o(i.__scatterload_copy)
    i.__scatterload_null                     0x0800335a   Section        2  handlers.o(i.__scatterload_null)
    i.__scatterload_zeroinit                 0x0800335c   Section       14  handlers.o(i.__scatterload_zeroinit)
    i._fp_digits                             0x0800336c   Section        0  printfa.o(i._fp_digits)
    _fp_digits                               0x0800336d   Thumb Code   334  printfa.o(i._fp_digits)
    i._printf_core                           0x080034d0   Section        0  printfa.o(i._printf_core)
    _printf_core                             0x080034d1   Thumb Code  1744  printfa.o(i._printf_core)
    i._printf_post_padding                   0x08003bac   Section        0  printfa.o(i._printf_post_padding)
    _printf_post_padding                     0x08003bad   Thumb Code    36  printfa.o(i._printf_post_padding)
    i._printf_pre_padding                    0x08003bd0   Section        0  printfa.o(i._printf_pre_padding)
    _printf_pre_padding                      0x08003bd1   Thumb Code    46  printfa.o(i._printf_pre_padding)
    i._sputc                                 0x08003bfe   Section        0  printfa.o(i._sputc)
    _sputc                                   0x08003bff   Thumb Code    10  printfa.o(i._sputc)
    i.fputc                                  0x08003c08   Section        0  main.o(i.fputc)
    i.main                                   0x08003c24   Section        0  main.o(i.main)
    .constdata                               0x08003d3c   Section       16  system_stm32f1xx.o(.constdata)
    .constdata                               0x08003d4c   Section        8  system_stm32f1xx.o(.constdata)
    .constdata                               0x08003d54   Section     2072  oled.o(.constdata)
    .data                                    0x20000000   Section       56  main.o(.data)
    .data                                    0x20000038   Section       12  stm32f1xx_hal.o(.data)
    .data                                    0x20000044   Section        4  system_stm32f1xx.o(.data)
    .data                                    0x20000048   Section        4  stdout.o(.data)
    .bss                                     0x2000004c   Section       28  main.o(.bss)
    .bss                                     0x20000068   Section      116  adc.o(.bss)
    .bss                                     0x200000dc   Section       84  i2c.o(.bss)
    .bss                                     0x20000130   Section      216  tim.o(.bss)
    .bss                                     0x20000208   Section       68  usart.o(.bss)
    STACK                                    0x20000250   Section     1024  startup_stm32f103xb.o(STACK)

    Global Symbols

    Symbol Name                              Value     Ov Type        Size  Object(Section)

    BuildAttributes$$THM_ISAv4$P$D$K$B$S$PE$A:L22UL41UL21$X:L11$S22US41US21$IEEE1$IW$USESV6$~STKCKD$USESV7$~SHL$OTIME$ROPI$EBA8$MICROLIB$REQ8$PRES8$EABIv2 0x00000000   Number         0  anon$$obj.o ABSOLUTE
    __ARM_use_no_argv                        0x00000000   Number         0  main.o ABSOLUTE
    _printf_a                                0x00000000   Number         0  stubs.o ABSOLUTE
    _printf_c                                0x00000000   Number         0  stubs.o ABSOLUTE
    _printf_charcount                        0x00000000   Number         0  stubs.o ABSOLUTE
    _printf_d                                0x00000000   Number         0  stubs.o ABSOLUTE
    _printf_e                                0x00000000   Number         0  stubs.o ABSOLUTE
    _printf_f                                0x00000000   Number         0  stubs.o ABSOLUTE
    _printf_flags                            0x00000000   Number         0  stubs.o ABSOLUTE
    _printf_fp_dec                           0x00000000   Number         0  stubs.o ABSOLUTE
    _printf_fp_hex                           0x00000000   Number         0  stubs.o ABSOLUTE
    _printf_g                                0x00000000   Number         0  stubs.o ABSOLUTE
    _printf_i                                0x00000000   Number         0  stubs.o ABSOLUTE
    _printf_int_dec                          0x00000000   Number         0  stubs.o ABSOLUTE
    _printf_l                                0x00000000   Number         0  stubs.o ABSOLUTE
    _printf_lc                               0x00000000   Number         0  stubs.o ABSOLUTE
    _printf_ll                               0x00000000   Number         0  stubs.o ABSOLUTE
    _printf_lld                              0x00000000   Number         0  stubs.o ABSOLUTE
    _printf_lli                              0x00000000   Number         0  stubs.o ABSOLUTE
    _printf_llo                              0x00000000   Number         0  stubs.o ABSOLUTE
    _printf_llu                              0x00000000   Number         0  stubs.o ABSOLUTE
    _printf_llx                              0x00000000   Number         0  stubs.o ABSOLUTE
    _printf_longlong_dec                     0x00000000   Number         0  stubs.o ABSOLUTE
    _printf_longlong_hex                     0x00000000   Number         0  stubs.o ABSOLUTE
    _printf_longlong_oct                     0x00000000   Number         0  stubs.o ABSOLUTE
    _printf_ls                               0x00000000   Number         0  stubs.o ABSOLUTE
    _printf_mbtowc                           0x00000000   Number         0  stubs.o ABSOLUTE
    _printf_n                                0x00000000   Number         0  stubs.o ABSOLUTE
    _printf_o                                0x00000000   Number         0  stubs.o ABSOLUTE
    _printf_p                                0x00000000   Number         0  stubs.o ABSOLUTE
    _printf_percent                          0x00000000   Number         0  stubs.o ABSOLUTE
    _printf_pre_padding                      0x00000000   Number         0  stubs.o ABSOLUTE
    _printf_return_value                     0x00000000   Number         0  stubs.o ABSOLUTE
    _printf_s                                0x00000000   Number         0  stubs.o ABSOLUTE
    _printf_sizespec                         0x00000000   Number         0  stubs.o ABSOLUTE
    _printf_str                              0x00000000   Number         0  stubs.o ABSOLUTE
    _printf_truncate_signed                  0x00000000   Number         0  stubs.o ABSOLUTE
    _printf_truncate_unsigned                0x00000000   Number         0  stubs.o ABSOLUTE
    _printf_u                                0x00000000   Number         0  stubs.o ABSOLUTE
    _printf_wc                               0x00000000   Number         0  stubs.o ABSOLUTE
    _printf_wctomb                           0x00000000   Number         0  stubs.o ABSOLUTE
    _printf_widthprec                        0x00000000   Number         0  stubs.o ABSOLUTE
    _printf_x                                0x00000000   Number         0  stubs.o ABSOLUTE
    __cpp_initialize__aeabi_                  - Undefined Weak Reference
    __cxa_finalize                            - Undefined Weak Reference
    __decompress                              - Undefined Weak Reference
    _clock_init                               - Undefined Weak Reference
    _microlib_exit                            - Undefined Weak Reference
    __Vectors_Size                           0x000000ec   Number         0  startup_stm32f103xb.o ABSOLUTE
    __Vectors                                0x08000000   Data           4  startup_stm32f103xb.o(RESET)
    __Vectors_End                            0x080000ec   Data           0  startup_stm32f103xb.o(RESET)
    __main                                   0x080000ed   Thumb Code     0  entry.o(.ARM.Collect$$$$00000000)
    _main_stk                                0x080000ed   Thumb Code     0  entry2.o(.ARM.Collect$$$$00000001)
    _main_scatterload                        0x080000f1   Thumb Code     0  entry5.o(.ARM.Collect$$$$00000004)
    __main_after_scatterload                 0x080000f5   Thumb Code     0  entry5.o(.ARM.Collect$$$$00000004)
    _main_clock                              0x080000f5   Thumb Code     0  entry7b.o(.ARM.Collect$$$$00000008)
    _main_cpp_init                           0x080000f5   Thumb Code     0  entry8b.o(.ARM.Collect$$$$0000000A)
    _main_init                               0x080000f5   Thumb Code     0  entry9a.o(.ARM.Collect$$$$0000000B)
    __rt_final_cpp                           0x080000fd   Thumb Code     0  entry10a.o(.ARM.Collect$$$$0000000D)
    __rt_final_exit                          0x080000fd   Thumb Code     0  entry11a.o(.ARM.Collect$$$$0000000F)
    Reset_Handler                            0x08000101   Thumb Code     8  startup_stm32f103xb.o(.text)
    ADC1_2_IRQHandler                        0x0800011b   Thumb Code     0  startup_stm32f103xb.o(.text)
    CAN1_RX1_IRQHandler                      0x0800011b   Thumb Code     0  startup_stm32f103xb.o(.text)
    CAN1_SCE_IRQHandler                      0x0800011b   Thumb Code     0  startup_stm32f103xb.o(.text)
    DMA1_Channel2_IRQHandler                 0x0800011b   Thumb Code     0  startup_stm32f103xb.o(.text)
    DMA1_Channel3_IRQHandler                 0x0800011b   Thumb Code     0  startup_stm32f103xb.o(.text)
    DMA1_Channel4_IRQHandler                 0x0800011b   Thumb Code     0  startup_stm32f103xb.o(.text)
    DMA1_Channel5_IRQHandler                 0x0800011b   Thumb Code     0  startup_stm32f103xb.o(.text)
    DMA1_Channel6_IRQHandler                 0x0800011b   Thumb Code     0  startup_stm32f103xb.o(.text)
    DMA1_Channel7_IRQHandler                 0x0800011b   Thumb Code     0  startup_stm32f103xb.o(.text)
    EXTI0_IRQHandler                         0x0800011b   Thumb Code     0  startup_stm32f103xb.o(.text)
    EXTI15_10_IRQHandler                     0x0800011b   Thumb Code     0  startup_stm32f103xb.o(.text)
    EXTI1_IRQHandler                         0x0800011b   Thumb Code     0  startup_stm32f103xb.o(.text)
    EXTI2_IRQHandler                         0x0800011b   Thumb Code     0  startup_stm32f103xb.o(.text)
    EXTI3_IRQHandler                         0x0800011b   Thumb Code     0  startup_stm32f103xb.o(.text)
    EXTI4_IRQHandler                         0x0800011b   Thumb Code     0  startup_stm32f103xb.o(.text)
    EXTI9_5_IRQHandler                       0x0800011b   Thumb Code     0  startup_stm32f103xb.o(.text)
    FLASH_IRQHandler                         0x0800011b   Thumb Code     0  startup_stm32f103xb.o(.text)
    I2C1_ER_IRQHandler                       0x0800011b   Thumb Code     0  startup_stm32f103xb.o(.text)
    I2C1_EV_IRQHandler                       0x0800011b   Thumb Code     0  startup_stm32f103xb.o(.text)
    I2C2_ER_IRQHandler                       0x0800011b   Thumb Code     0  startup_stm32f103xb.o(.text)
    I2C2_EV_IRQHandler                       0x0800011b   Thumb Code     0  startup_stm32f103xb.o(.text)
    PVD_IRQHandler                           0x0800011b   Thumb Code     0  startup_stm32f103xb.o(.text)
    RCC_IRQHandler                           0x0800011b   Thumb Code     0  startup_stm32f103xb.o(.text)
    RTC_Alarm_IRQHandler                     0x0800011b   Thumb Code     0  startup_stm32f103xb.o(.text)
    RTC_IRQHandler                           0x0800011b   Thumb Code     0  startup_stm32f103xb.o(.text)
    SPI1_IRQHandler                          0x0800011b   Thumb Code     0  startup_stm32f103xb.o(.text)
    SPI2_IRQHandler                          0x0800011b   Thumb Code     0  startup_stm32f103xb.o(.text)
    TAMPER_IRQHandler                        0x0800011b   Thumb Code     0  startup_stm32f103xb.o(.text)
    TIM1_BRK_IRQHandler                      0x0800011b   Thumb Code     0  startup_stm32f103xb.o(.text)
    TIM1_CC_IRQHandler                       0x0800011b   Thumb Code     0  startup_stm32f103xb.o(.text)
    TIM1_TRG_COM_IRQHandler                  0x0800011b   Thumb Code     0  startup_stm32f103xb.o(.text)
    TIM1_UP_IRQHandler                       0x0800011b   Thumb Code     0  startup_stm32f103xb.o(.text)
    TIM3_IRQHandler                          0x0800011b   Thumb Code     0  startup_stm32f103xb.o(.text)
    TIM4_IRQHandler                          0x0800011b   Thumb Code     0  startup_stm32f103xb.o(.text)
    USART1_IRQHandler                        0x0800011b   Thumb Code     0  startup_stm32f103xb.o(.text)
    USART2_IRQHandler                        0x0800011b   Thumb Code     0  startup_stm32f103xb.o(.text)
    USART3_IRQHandler                        0x0800011b   Thumb Code     0  startup_stm32f103xb.o(.text)
    USBWakeUp_IRQHandler                     0x0800011b   Thumb Code     0  startup_stm32f103xb.o(.text)
    USB_HP_CAN1_TX_IRQHandler                0x0800011b   Thumb Code     0  startup_stm32f103xb.o(.text)
    USB_LP_CAN1_RX0_IRQHandler               0x0800011b   Thumb Code     0  startup_stm32f103xb.o(.text)
    WWDG_IRQHandler                          0x0800011b   Thumb Code     0  startup_stm32f103xb.o(.text)
    __aeabi_llsr                             0x08000125   Thumb Code    32  llushr.o(.text)
    _ll_ushift_r                             0x08000125   Thumb Code     0  llushr.o(.text)
    __aeabi_memset                           0x08000145   Thumb Code    14  memseta.o(.text)
    __aeabi_memset4                          0x08000145   Thumb Code     0  memseta.o(.text)
    __aeabi_memset8                          0x08000145   Thumb Code     0  memseta.o(.text)
    __aeabi_memclr                           0x08000153   Thumb Code     4  memseta.o(.text)
    __aeabi_memclr4                          0x08000153   Thumb Code     0  memseta.o(.text)
    __aeabi_memclr8                          0x08000153   Thumb Code     0  memseta.o(.text)
    _memset$wrapper                          0x08000157   Thumb Code    18  memseta.o(.text)
    __aeabi_fadd                             0x08000169   Thumb Code   164  fadd.o(.text)
    __aeabi_fsub                             0x0800020d   Thumb Code     6  fadd.o(.text)
    __aeabi_frsub                            0x08000213   Thumb Code     6  fadd.o(.text)
    __aeabi_fmul                             0x08000219   Thumb Code   100  fmul.o(.text)
    __aeabi_fdiv                             0x0800027d   Thumb Code   124  fdiv.o(.text)
    __ARM_scalbnf                            0x080002f9   Thumb Code    24  fscalb.o(.text)
    scalbnf                                  0x080002f9   Thumb Code     0  fscalb.o(.text)
    __aeabi_dadd                             0x08000311   Thumb Code   322  dadd.o(.text)
    __aeabi_dsub                             0x08000453   Thumb Code     6  dadd.o(.text)
    __aeabi_drsub                            0x08000459   Thumb Code     6  dadd.o(.text)
    __aeabi_dmul                             0x0800045f   Thumb Code   228  dmul.o(.text)
    __ARM_scalbn                             0x08000543   Thumb Code    46  dscalb.o(.text)
    scalbn                                   0x08000543   Thumb Code     0  dscalb.o(.text)
    __aeabi_ui2d                             0x08000571   Thumb Code    26  dfltui.o(.text)
    __aeabi_f2iz                             0x0800058b   Thumb Code    50  ffixi.o(.text)
    __aeabi_f2d                              0x080005bd   Thumb Code    38  f2d.o(.text)
    __aeabi_d2f                              0x080005e3   Thumb Code    56  d2f.o(.text)
    __aeabi_uidiv                            0x0800061b   Thumb Code     0  uidiv.o(.text)
    __aeabi_uidivmod                         0x0800061b   Thumb Code    44  uidiv.o(.text)
    __aeabi_uldivmod                         0x08000647   Thumb Code    98  uldiv.o(.text)
    __aeabi_llsl                             0x080006a9   Thumb Code    30  llshl.o(.text)
    _ll_shift_l                              0x080006a9   Thumb Code     0  llshl.o(.text)
    __aeabi_lasr                             0x080006c7   Thumb Code    36  llsshr.o(.text)
    _ll_sshift_r                             0x080006c7   Thumb Code     0  llsshr.o(.text)
    __I$use$fp                               0x080006eb   Thumb Code     0  iusefp.o(.text)
    _float_round                             0x080006eb   Thumb Code    18  fepilogue.o(.text)
    _float_epilogue                          0x080006fd   Thumb Code    92  fepilogue.o(.text)
    _double_round                            0x08000759   Thumb Code    30  depilogue.o(.text)
    _double_epilogue                         0x08000777   Thumb Code   156  depilogue.o(.text)
    __aeabi_ddiv                             0x08000813   Thumb Code   222  ddiv.o(.text)
    __aeabi_d2ulz                            0x080008f1   Thumb Code    48  dfixul.o(.text)
    __aeabi_cdrcmple                         0x08000921   Thumb Code    48  cdrcmple.o(.text)
    __scatterload                            0x08000951   Thumb Code    28  init.o(.text)
    __scatterload_rt2                        0x08000951   Thumb Code     0  init.o(.text)
    ADC_ConversionStop_Disable               0x08000975   Thumb Code    86  stm32f1xx_hal_adc.o(i.ADC_ConversionStop_Disable)
    ADC_DMAConvCplt                          0x080009cb   Thumb Code    78  stm32f1xx_hal_adc.o(i.ADC_DMAConvCplt)
    ADC_DMAError                             0x08000a19   Thumb Code    26  stm32f1xx_hal_adc.o(i.ADC_DMAError)
    ADC_DMAHalfConvCplt                      0x08000a33   Thumb Code    10  stm32f1xx_hal_adc.o(i.ADC_DMAHalfConvCplt)
    ADC_Enable                               0x08000a3d   Thumb Code   114  stm32f1xx_hal_adc.o(i.ADC_Enable)
    Add_pid_update                           0x08000ab9   Thumb Code    90  pid.o(i.Add_pid_update)
    BusFault_Handler                         0x08000b13   Thumb Code     2  stm32f1xx_it.o(i.BusFault_Handler)
    DMA1_Channel1_IRQHandler                 0x08000b15   Thumb Code     6  stm32f1xx_it.o(i.DMA1_Channel1_IRQHandler)
    DebugMon_Handler                         0x08000b4b   Thumb Code     2  stm32f1xx_it.o(i.DebugMon_Handler)
    Error_Handler                            0x08000b4d   Thumb Code     4  main.o(i.Error_Handler)
    HAL_ADCEx_Calibration_Start              0x08000b51   Thumb Code   210  stm32f1xx_hal_adc_ex.o(i.HAL_ADCEx_Calibration_Start)
    HAL_ADC_ConfigChannel                    0x08000c29   Thumb Code   240  stm32f1xx_hal_adc.o(i.HAL_ADC_ConfigChannel)
    HAL_ADC_ConvCpltCallback                 0x08000d25   Thumb Code     2  stm32f1xx_hal_adc.o(i.HAL_ADC_ConvCpltCallback)
    HAL_ADC_ConvHalfCpltCallback             0x08000d27   Thumb Code     2  stm32f1xx_hal_adc.o(i.HAL_ADC_ConvHalfCpltCallback)
    HAL_ADC_ErrorCallback                    0x08000d29   Thumb Code     2  stm32f1xx_hal_adc.o(i.HAL_ADC_ErrorCallback)
    HAL_ADC_Init                             0x08000d2d   Thumb Code   272  stm32f1xx_hal_adc.o(i.HAL_ADC_Init)
    HAL_ADC_MspInit                          0x08000e49   Thumb Code   122  adc.o(i.HAL_ADC_MspInit)
    HAL_ADC_Start_DMA                        0x08000ed9   Thumb Code   246  stm32f1xx_hal_adc.o(i.HAL_ADC_Start_DMA)
    HAL_DMA_IRQHandler                       0x08000fe5   Thumb Code   316  stm32f1xx_hal_dma.o(i.HAL_DMA_IRQHandler)
    HAL_DMA_Init                             0x08001139   Thumb Code    84  stm32f1xx_hal_dma.o(i.HAL_DMA_Init)
    HAL_DMA_Start_IT                         0x08001195   Thumb Code   112  stm32f1xx_hal_dma.o(i.HAL_DMA_Start_IT)
    HAL_Delay                                0x08001205   Thumb Code    32  stm32f1xx_hal.o(i.HAL_Delay)
    HAL_GPIO_Init                            0x08001229   Thumb Code   446  stm32f1xx_hal_gpio.o(i.HAL_GPIO_Init)
    HAL_GPIO_WritePin                        0x08001409   Thumb Code    10  stm32f1xx_hal_gpio.o(i.HAL_GPIO_WritePin)
    HAL_GetTick                              0x08001415   Thumb Code     6  stm32f1xx_hal.o(i.HAL_GetTick)
    HAL_I2C_Init                             0x08001421   Thumb Code   376  stm32f1xx_hal_i2c.o(i.HAL_I2C_Init)
    HAL_I2C_MspInit                          0x080015a9   Thumb Code    96  i2c.o(i.HAL_I2C_MspInit)
    HAL_IncTick                              0x08001619   Thumb Code    12  stm32f1xx_hal.o(i.HAL_IncTick)
    HAL_Init                                 0x08001629   Thumb Code    32  stm32f1xx_hal.o(i.HAL_Init)
    HAL_InitTick                             0x0800164d   Thumb Code    54  stm32f1xx_hal.o(i.HAL_InitTick)
    HAL_MspInit                              0x0800168d   Thumb Code    52  stm32f1xx_hal_msp.o(i.HAL_MspInit)
    HAL_NVIC_EnableIRQ                       0x080016c9   Thumb Code    26  stm32f1xx_hal_cortex.o(i.HAL_NVIC_EnableIRQ)
    HAL_NVIC_SetPriority                     0x080016e5   Thumb Code    60  stm32f1xx_hal_cortex.o(i.HAL_NVIC_SetPriority)
    HAL_NVIC_SetPriorityGrouping             0x08001725   Thumb Code    26  stm32f1xx_hal_cortex.o(i.HAL_NVIC_SetPriorityGrouping)
    HAL_RCCEx_GetPeriphCLKFreq               0x08001749   Thumb Code   166  stm32f1xx_hal_rcc_ex.o(i.HAL_RCCEx_GetPeriphCLKFreq)
    HAL_RCCEx_PeriphCLKConfig                0x08001811   Thumb Code   224  stm32f1xx_hal_rcc_ex.o(i.HAL_RCCEx_PeriphCLKConfig)
    HAL_RCC_ClockConfig                      0x080018fd   Thumb Code   280  stm32f1xx_hal_rcc.o(i.HAL_RCC_ClockConfig)
    HAL_RCC_GetPCLK1Freq                     0x08001a29   Thumb Code    20  stm32f1xx_hal_rcc.o(i.HAL_RCC_GetPCLK1Freq)
    HAL_RCC_GetPCLK2Freq                     0x08001a49   Thumb Code    20  stm32f1xx_hal_rcc.o(i.HAL_RCC_GetPCLK2Freq)
    HAL_RCC_GetSysClockFreq                  0x08001a69   Thumb Code    74  stm32f1xx_hal_rcc.o(i.HAL_RCC_GetSysClockFreq)
    HAL_RCC_OscConfig                        0x08001ad5   Thumb Code   778  stm32f1xx_hal_rcc.o(i.HAL_RCC_OscConfig)
    HAL_SYSTICK_Config                       0x08001df5   Thumb Code    40  stm32f1xx_hal_cortex.o(i.HAL_SYSTICK_Config)
    HAL_TIMEx_BreakCallback                  0x08001e1d   Thumb Code     2  stm32f1xx_hal_tim_ex.o(i.HAL_TIMEx_BreakCallback)
    HAL_TIMEx_CommutCallback                 0x08001e1f   Thumb Code     2  stm32f1xx_hal_tim_ex.o(i.HAL_TIMEx_CommutCallback)
    HAL_TIMEx_ConfigBreakDeadTime            0x08001e21   Thumb Code    84  stm32f1xx_hal_tim_ex.o(i.HAL_TIMEx_ConfigBreakDeadTime)
    HAL_TIMEx_MasterConfigSynchronization    0x08001e75   Thumb Code    92  stm32f1xx_hal_tim_ex.o(i.HAL_TIMEx_MasterConfigSynchronization)
    HAL_TIM_Base_Init                        0x08001edd   Thumb Code    90  stm32f1xx_hal_tim.o(i.HAL_TIM_Base_Init)
    HAL_TIM_Base_MspInit                     0x08001f39   Thumb Code    94  tim.o(i.HAL_TIM_Base_MspInit)
    HAL_TIM_Base_Start_IT                    0x08001fa5   Thumb Code    76  stm32f1xx_hal_tim.o(i.HAL_TIM_Base_Start_IT)
    HAL_TIM_ConfigClockSource                0x08001ffd   Thumb Code   214  stm32f1xx_hal_tim.o(i.HAL_TIM_ConfigClockSource)
    HAL_TIM_IC_CaptureCallback               0x080020d3   Thumb Code     2  stm32f1xx_hal_tim.o(i.HAL_TIM_IC_CaptureCallback)
    HAL_TIM_IRQHandler                       0x080020d5   Thumb Code   358  stm32f1xx_hal_tim.o(i.HAL_TIM_IRQHandler)
    HAL_TIM_MspPostInit                      0x0800223d   Thumb Code    88  tim.o(i.HAL_TIM_MspPostInit)
    HAL_TIM_OC_DelayElapsedCallback          0x080022a5   Thumb Code     2  stm32f1xx_hal_tim.o(i.HAL_TIM_OC_DelayElapsedCallback)
    HAL_TIM_PWM_ConfigChannel                0x080022a7   Thumb Code   198  stm32f1xx_hal_tim.o(i.HAL_TIM_PWM_ConfigChannel)
    HAL_TIM_PWM_Init                         0x0800236d   Thumb Code    90  stm32f1xx_hal_tim.o(i.HAL_TIM_PWM_Init)
    HAL_TIM_PWM_MspInit                      0x080023c7   Thumb Code     2  stm32f1xx_hal_tim.o(i.HAL_TIM_PWM_MspInit)
    HAL_TIM_PWM_PulseFinishedCallback        0x080023c9   Thumb Code     2  stm32f1xx_hal_tim.o(i.HAL_TIM_PWM_PulseFinishedCallback)
    HAL_TIM_PWM_Start                        0x080023cd   Thumb Code   144  stm32f1xx_hal_tim.o(i.HAL_TIM_PWM_Start)
    HAL_TIM_PeriodElapsedCallback            0x08002469   Thumb Code   324  main.o(i.HAL_TIM_PeriodElapsedCallback)
    HAL_TIM_TriggerCallback                  0x080025f9   Thumb Code     2  stm32f1xx_hal_tim.o(i.HAL_TIM_TriggerCallback)
    HAL_UART_Init                            0x080025fb   Thumb Code    98  stm32f1xx_hal_uart.o(i.HAL_UART_Init)
    HAL_UART_MspInit                         0x0800265d   Thumb Code   112  usart.o(i.HAL_UART_MspInit)
    HAL_UART_Transmit                        0x080026dd   Thumb Code   178  stm32f1xx_hal_uart.o(i.HAL_UART_Transmit)
    HardFault_Handler                        0x0800278f   Thumb Code     2  stm32f1xx_it.o(i.HardFault_Handler)
    IIC_Start                                0x08002791   Thumb Code    52  oled.o(i.IIC_Start)
    IIC_Stop                                 0x080027c9   Thumb Code    40  oled.o(i.IIC_Stop)
    IIC_Wait_Ack                             0x080027f5   Thumb Code    30  oled.o(i.IIC_Wait_Ack)
    MX_ADC1_Init                             0x08002819   Thumb Code   132  adc.o(i.MX_ADC1_Init)
    MX_DMA_Init                              0x080028a5   Thumb Code    40  dma.o(i.MX_DMA_Init)
    MX_GPIO_Init                             0x080028d1   Thumb Code   178  gpio.o(i.MX_GPIO_Init)
    MX_I2C1_Init                             0x08002995   Thumb Code    50  i2c.o(i.MX_I2C1_Init)
    MX_TIM1_Init                             0x080029d5   Thumb Code   192  tim.o(i.MX_TIM1_Init)
    MX_TIM2_Init                             0x08002a9d   Thumb Code    96  tim.o(i.MX_TIM2_Init)
    MX_TIM3_Init                             0x08002b01   Thumb Code   144  tim.o(i.MX_TIM3_Init)
    MX_USART1_UART_Init                      0x08002b99   Thumb Code    48  usart.o(i.MX_USART1_UART_Init)
    MemManage_Handler                        0x08002bd1   Thumb Code     2  stm32f1xx_it.o(i.MemManage_Handler)
    NMI_Handler                              0x08002bd3   Thumb Code     2  stm32f1xx_it.o(i.NMI_Handler)
    OLED_Clear                               0x08002bd5   Thumb Code    58  oled.o(i.OLED_Clear)
    OLED_Init                                0x08002c11   Thumb Code   302  oled.o(i.OLED_Init)
    OLED_Set_Pos                             0x08002d49   Thumb Code    42  oled.o(i.OLED_Set_Pos)
    OLED_ShowChar                            0x08002d75   Thumb Code   128  oled.o(i.OLED_ShowChar)
    OLED_ShowString                          0x08002dfd   Thumb Code    54  oled.o(i.OLED_ShowString)
    OLED_WR_Byte                             0x08002e33   Thumb Code    12  oled.o(i.OLED_WR_Byte)
    PendSV_Handler                           0x08002e3f   Thumb Code     2  stm32f1xx_it.o(i.PendSV_Handler)
    SVC_Handler                              0x08002e41   Thumb Code     2  stm32f1xx_it.o(i.SVC_Handler)
    Set_Tim3_Duty                            0x08002e43   Thumb Code     6  tim.o(i.Set_Tim3_Duty)
    SysTick_Handler                          0x08002e49   Thumb Code     4  stm32f1xx_it.o(i.SysTick_Handler)
    SystemClock_Config                       0x08002e4d   Thumb Code   120  main.o(i.SystemClock_Config)
    SystemInit                               0x08002ec5   Thumb Code     2  system_stm32f1xx.o(i.SystemInit)
    TIM2_IRQHandler                          0x08002ec9   Thumb Code     6  stm32f1xx_it.o(i.TIM2_IRQHandler)
    TIM_Base_SetConfig                       0x08002ed5   Thumb Code    94  stm32f1xx_hal_tim.o(i.TIM_Base_SetConfig)
    TIM_CCxChannelCmd                        0x08002f41   Thumb Code    26  stm32f1xx_hal_tim.o(i.TIM_CCxChannelCmd)
    TIM_ETR_SetConfig                        0x08002f5b   Thumb Code    20  stm32f1xx_hal_tim.o(i.TIM_ETR_SetConfig)
    TIM_OC2_SetConfig                        0x08002fd1   Thumb Code    84  stm32f1xx_hal_tim.o(i.TIM_OC2_SetConfig)
    UsageFault_Handler                       0x08003229   Thumb Code     2  stm32f1xx_it.o(i.UsageFault_Handler)
    Write_IIC_Byte                           0x0800322d   Thumb Code    86  oled.o(i.Write_IIC_Byte)
    Write_IIC_Command                        0x08003289   Thumb Code    46  oled.o(i.Write_IIC_Command)
    Write_IIC_Data                           0x080032b7   Thumb Code    46  oled.o(i.Write_IIC_Data)
    __0printf                                0x080032e5   Thumb Code    22  printfa.o(i.__0printf)
    __1printf                                0x080032e5   Thumb Code     0  printfa.o(i.__0printf)
    __2printf                                0x080032e5   Thumb Code     0  printfa.o(i.__0printf)
    __c89printf                              0x080032e5   Thumb Code     0  printfa.o(i.__0printf)
    printf                                   0x080032e5   Thumb Code     0  printfa.o(i.__0printf)
    __0sprintf                               0x08003305   Thumb Code    34  printfa.o(i.__0sprintf)
    __1sprintf                               0x08003305   Thumb Code     0  printfa.o(i.__0sprintf)
    __2sprintf                               0x08003305   Thumb Code     0  printfa.o(i.__0sprintf)
    __c89sprintf                             0x08003305   Thumb Code     0  printfa.o(i.__0sprintf)
    sprintf                                  0x08003305   Thumb Code     0  printfa.o(i.__0sprintf)
    __scatterload_copy                       0x0800334d   Thumb Code    14  handlers.o(i.__scatterload_copy)
    __scatterload_null                       0x0800335b   Thumb Code     2  handlers.o(i.__scatterload_null)
    __scatterload_zeroinit                   0x0800335d   Thumb Code    14  handlers.o(i.__scatterload_zeroinit)
    fputc                                    0x08003c09   Thumb Code    24  main.o(i.fputc)
    main                                     0x08003c25   Thumb Code   220  main.o(i.main)
    AHBPrescTable                            0x08003d3c   Data          16  system_stm32f1xx.o(.constdata)
    APBPrescTable                            0x08003d4c   Data           8  system_stm32f1xx.o(.constdata)
    F6x8                                     0x08003d54   Data         552  oled.o(.constdata)
    F8X16                                    0x08003f7c   Data        1520  oled.o(.constdata)
    Region$$Table$$Base                      0x0800456c   Number         0  anon$$obj.o(Region$$Table)
    Region$$Table$$Limit                     0x0800458c   Number         0  anon$$obj.o(Region$$Table)
    voltage_ISN                              0x20000000   Data           4  main.o(.data)
    voltage_ISN_sum                          0x20000004   Data           4  main.o(.data)
    electric_current                         0x20000008   Data           4  main.o(.data)
    electric_current_sum                     0x2000000c   Data           4  main.o(.data)
    power                                    0x20000010   Data           4  main.o(.data)
    power_want                               0x20000014   Data           4  main.o(.data)
    duty                                     0x20000018   Data           4  main.o(.data)
    pid                                      0x2000001c   Data          28  main.o(.data)
    uwTickFreq                               0x20000038   Data           1  stm32f1xx_hal.o(.data)
    uwTickPrio                               0x2000003c   Data           4  stm32f1xx_hal.o(.data)
    uwTick                                   0x20000040   Data           4  stm32f1xx_hal.o(.data)
    SystemCoreClock                          0x20000044   Data           4  system_stm32f1xx.o(.data)
    __stdout                                 0x20000048   Data           4  stdout.o(.data)
    dateStrBuf                               0x2000004c   Data          10  main.o(.bss)
    ADC_Value                                0x20000058   Data          16  main.o(.bss)
    hadc1                                    0x20000068   Data          48  adc.o(.bss)
    hdma_adc1                                0x20000098   Data          68  adc.o(.bss)
    hi2c1                                    0x200000dc   Data          84  i2c.o(.bss)
    htim1                                    0x20000130   Data          72  tim.o(.bss)
    htim2                                    0x20000178   Data          72  tim.o(.bss)
    htim3                                    0x200001c0   Data          72  tim.o(.bss)
    huart1                                   0x20000208   Data          68  usart.o(.bss)
    __initial_sp                             0x20000650   Data           0  startup_stm32f103xb.o(STACK)



==============================================================================

Memory Map of the image

  Image Entry point : 0x080000ed

  Load Region LR_IROM1 (Base: 0x08000000, Size: 0x000045d8, Max: 0x00010000, ABSOLUTE)

    Execution Region ER_IROM1 (Base: 0x08000000, Size: 0x0000458c, Max: 0x00010000, ABSOLUTE)

    Base Addr    Size         Type   Attr      Idx    E Section Name        Object

    0x08000000   0x000000ec   Data   RO            3    RESET               startup_stm32f103xb.o
    0x080000ec   0x00000000   Code   RO         3855  * .ARM.Collect$$$$00000000  mc_w.l(entry.o)
    0x080000ec   0x00000004   Code   RO         4147    .ARM.Collect$$$$00000001  mc_w.l(entry2.o)
    0x080000f0   0x00000004   Code   RO         4150    .ARM.Collect$$$$00000004  mc_w.l(entry5.o)
    0x080000f4   0x00000000   Code   RO         4152    .ARM.Collect$$$$00000008  mc_w.l(entry7b.o)
    0x080000f4   0x00000000   Code   RO         4154    .ARM.Collect$$$$0000000A  mc_w.l(entry8b.o)
    0x080000f4   0x00000008   Code   RO         4155    .ARM.Collect$$$$0000000B  mc_w.l(entry9a.o)
    0x080000fc   0x00000000   Code   RO         4157    .ARM.Collect$$$$0000000D  mc_w.l(entry10a.o)
    0x080000fc   0x00000000   Code   RO         4159    .ARM.Collect$$$$0000000F  mc_w.l(entry11a.o)
    0x080000fc   0x00000004   Code   RO         4148    .ARM.Collect$$$$00002712  mc_w.l(entry2.o)
    0x08000100   0x00000024   Code   RO            4    .text               startup_stm32f103xb.o
    0x08000124   0x00000020   Code   RO         3858    .text               mc_w.l(llushr.o)
    0x08000144   0x00000024   Code   RO         3860    .text               mc_w.l(memseta.o)
    0x08000168   0x000000b0   Code   RO         4123    .text               mf_w.l(fadd.o)
    0x08000218   0x00000064   Code   RO         4125    .text               mf_w.l(fmul.o)
    0x0800027c   0x0000007c   Code   RO         4127    .text               mf_w.l(fdiv.o)
    0x080002f8   0x00000018   Code   RO         4129    .text               mf_w.l(fscalb.o)
    0x08000310   0x0000014e   Code   RO         4131    .text               mf_w.l(dadd.o)
    0x0800045e   0x000000e4   Code   RO         4133    .text               mf_w.l(dmul.o)
    0x08000542   0x0000002e   Code   RO         4135    .text               mf_w.l(dscalb.o)
    0x08000570   0x0000001a   Code   RO         4139    .text               mf_w.l(dfltui.o)
    0x0800058a   0x00000032   Code   RO         4141    .text               mf_w.l(ffixi.o)
    0x080005bc   0x00000026   Code   RO         4143    .text               mf_w.l(f2d.o)
    0x080005e2   0x00000038   Code   RO         4145    .text               mf_w.l(d2f.o)
    0x0800061a   0x0000002c   Code   RO         4162    .text               mc_w.l(uidiv.o)
    0x08000646   0x00000062   Code   RO         4164    .text               mc_w.l(uldiv.o)
    0x080006a8   0x0000001e   Code   RO         4166    .text               mc_w.l(llshl.o)
    0x080006c6   0x00000024   Code   RO         4168    .text               mc_w.l(llsshr.o)
    0x080006ea   0x00000000   Code   RO         4170    .text               mc_w.l(iusefp.o)
    0x080006ea   0x0000006e   Code   RO         4171    .text               mf_w.l(fepilogue.o)
    0x08000758   0x000000ba   Code   RO         4173    .text               mf_w.l(depilogue.o)
    0x08000812   0x000000de   Code   RO         4175    .text               mf_w.l(ddiv.o)
    0x080008f0   0x00000030   Code   RO         4177    .text               mf_w.l(dfixul.o)
    0x08000920   0x00000030   Code   RO         4179    .text               mf_w.l(cdrcmple.o)
    0x08000950   0x00000024   Code   RO         4181    .text               mc_w.l(init.o)
    0x08000974   0x00000056   Code   RO          614    i.ADC_ConversionStop_Disable  stm32f1xx_hal_adc.o
    0x080009ca   0x0000004e   Code   RO          615    i.ADC_DMAConvCplt   stm32f1xx_hal_adc.o
    0x08000a18   0x0000001a   Code   RO          616    i.ADC_DMAError      stm32f1xx_hal_adc.o
    0x08000a32   0x0000000a   Code   RO          617    i.ADC_DMAHalfConvCplt  stm32f1xx_hal_adc.o
    0x08000a3c   0x0000007c   Code   RO          618    i.ADC_Enable        stm32f1xx_hal_adc.o
    0x08000ab8   0x0000005a   Code   RO         3828    i.Add_pid_update    pid.o
    0x08000b12   0x00000002   Code   RO          466    i.BusFault_Handler  stm32f1xx_it.o
    0x08000b14   0x0000000c   Code   RO          467    i.DMA1_Channel1_IRQHandler  stm32f1xx_it.o
    0x08000b20   0x0000002a   Code   RO         1268    i.DMA_SetConfig     stm32f1xx_hal_dma.o
    0x08000b4a   0x00000002   Code   RO          468    i.DebugMon_Handler  stm32f1xx_it.o
    0x08000b4c   0x00000004   Code   RO           14    i.Error_Handler     main.o
    0x08000b50   0x000000d8   Code   RO          794    i.HAL_ADCEx_Calibration_Start  stm32f1xx_hal_adc_ex.o
    0x08000c28   0x000000fc   Code   RO          620    i.HAL_ADC_ConfigChannel  stm32f1xx_hal_adc.o
    0x08000d24   0x00000002   Code   RO          621    i.HAL_ADC_ConvCpltCallback  stm32f1xx_hal_adc.o
    0x08000d26   0x00000002   Code   RO          622    i.HAL_ADC_ConvHalfCpltCallback  stm32f1xx_hal_adc.o
    0x08000d28   0x00000002   Code   RO          624    i.HAL_ADC_ErrorCallback  stm32f1xx_hal_adc.o
    0x08000d2a   0x00000002   PAD
    0x08000d2c   0x0000011c   Code   RO          629    i.HAL_ADC_Init      stm32f1xx_hal_adc.o
    0x08000e48   0x00000090   Code   RO          245    i.HAL_ADC_MspInit   adc.o
    0x08000ed8   0x0000010c   Code   RO          636    i.HAL_ADC_Start_DMA  stm32f1xx_hal_adc.o
    0x08000fe4   0x00000154   Code   RO         1274    i.HAL_DMA_IRQHandler  stm32f1xx_hal_dma.o
    0x08001138   0x0000005c   Code   RO         1275    i.HAL_DMA_Init      stm32f1xx_hal_dma.o
    0x08001194   0x00000070   Code   RO         1279    i.HAL_DMA_Start_IT  stm32f1xx_hal_dma.o
    0x08001204   0x00000024   Code   RO          897    i.HAL_Delay         stm32f1xx_hal.o
    0x08001228   0x000001e0   Code   RO         1205    i.HAL_GPIO_Init     stm32f1xx_hal_gpio.o
    0x08001408   0x0000000a   Code   RO         1209    i.HAL_GPIO_WritePin  stm32f1xx_hal_gpio.o
    0x08001412   0x00000002   PAD
    0x08001414   0x0000000c   Code   RO          901    i.HAL_GetTick       stm32f1xx_hal.o
    0x08001420   0x00000188   Code   RO         1876    i.HAL_I2C_Init      stm32f1xx_hal_i2c.o
    0x080015a8   0x00000070   Code   RO          311    i.HAL_I2C_MspInit   i2c.o
    0x08001618   0x00000010   Code   RO          907    i.HAL_IncTick       stm32f1xx_hal.o
    0x08001628   0x00000024   Code   RO          908    i.HAL_Init          stm32f1xx_hal.o
    0x0800164c   0x00000040   Code   RO          909    i.HAL_InitTick      stm32f1xx_hal.o
    0x0800168c   0x0000003c   Code   RO          554    i.HAL_MspInit       stm32f1xx_hal_msp.o
    0x080016c8   0x0000001a   Code   RO         1365    i.HAL_NVIC_EnableIRQ  stm32f1xx_hal_cortex.o
    0x080016e2   0x00000002   PAD
    0x080016e4   0x00000040   Code   RO         1371    i.HAL_NVIC_SetPriority  stm32f1xx_hal_cortex.o
    0x08001724   0x00000024   Code   RO         1372    i.HAL_NVIC_SetPriorityGrouping  stm32f1xx_hal_cortex.o
    0x08001748   0x000000c8   Code   RO         1167    i.HAL_RCCEx_GetPeriphCLKFreq  stm32f1xx_hal_rcc_ex.o
    0x08001810   0x000000ec   Code   RO         1168    i.HAL_RCCEx_PeriphCLKConfig  stm32f1xx_hal_rcc_ex.o
    0x080018fc   0x0000012c   Code   RO         1065    i.HAL_RCC_ClockConfig  stm32f1xx_hal_rcc.o
    0x08001a28   0x00000020   Code   RO         1072    i.HAL_RCC_GetPCLK1Freq  stm32f1xx_hal_rcc.o
    0x08001a48   0x00000020   Code   RO         1073    i.HAL_RCC_GetPCLK2Freq  stm32f1xx_hal_rcc.o
    0x08001a68   0x0000006c   Code   RO         1074    i.HAL_RCC_GetSysClockFreq  stm32f1xx_hal_rcc.o
    0x08001ad4   0x00000320   Code   RO         1077    i.HAL_RCC_OscConfig  stm32f1xx_hal_rcc.o
    0x08001df4   0x00000028   Code   RO         1376    i.HAL_SYSTICK_Config  stm32f1xx_hal_cortex.o
    0x08001e1c   0x00000002   Code   RO         3003    i.HAL_TIMEx_BreakCallback  stm32f1xx_hal_tim_ex.o
    0x08001e1e   0x00000002   Code   RO         3004    i.HAL_TIMEx_CommutCallback  stm32f1xx_hal_tim_ex.o
    0x08001e20   0x00000054   Code   RO         3006    i.HAL_TIMEx_ConfigBreakDeadTime  stm32f1xx_hal_tim_ex.o
    0x08001e74   0x00000068   Code   RO         3022    i.HAL_TIMEx_MasterConfigSynchronization  stm32f1xx_hal_tim_ex.o
    0x08001edc   0x0000005a   Code   RO         2299    i.HAL_TIM_Base_Init  stm32f1xx_hal_tim.o
    0x08001f36   0x00000002   PAD
    0x08001f38   0x0000006c   Code   RO          353    i.HAL_TIM_Base_MspInit  tim.o
    0x08001fa4   0x00000058   Code   RO         2304    i.HAL_TIM_Base_Start_IT  stm32f1xx_hal_tim.o
    0x08001ffc   0x000000d6   Code   RO         2308    i.HAL_TIM_ConfigClockSource  stm32f1xx_hal_tim.o
    0x080020d2   0x00000002   Code   RO         2333    i.HAL_TIM_IC_CaptureCallback  stm32f1xx_hal_tim.o
    0x080020d4   0x00000166   Code   RO         2347    i.HAL_TIM_IRQHandler  stm32f1xx_hal_tim.o
    0x0800223a   0x00000002   PAD
    0x0800223c   0x00000068   Code   RO          354    i.HAL_TIM_MspPostInit  tim.o
    0x080022a4   0x00000002   Code   RO         2350    i.HAL_TIM_OC_DelayElapsedCallback  stm32f1xx_hal_tim.o
    0x080022a6   0x000000c6   Code   RO         2371    i.HAL_TIM_PWM_ConfigChannel  stm32f1xx_hal_tim.o
    0x0800236c   0x0000005a   Code   RO         2374    i.HAL_TIM_PWM_Init  stm32f1xx_hal_tim.o
    0x080023c6   0x00000002   Code   RO         2376    i.HAL_TIM_PWM_MspInit  stm32f1xx_hal_tim.o
    0x080023c8   0x00000002   Code   RO         2377    i.HAL_TIM_PWM_PulseFinishedCallback  stm32f1xx_hal_tim.o
    0x080023ca   0x00000002   PAD
    0x080023cc   0x0000009c   Code   RO         2379    i.HAL_TIM_PWM_Start  stm32f1xx_hal_tim.o
    0x08002468   0x00000190   Code   RO           15    i.HAL_TIM_PeriodElapsedCallback  main.o
    0x080025f8   0x00000002   Code   RO         2390    i.HAL_TIM_TriggerCallback  stm32f1xx_hal_tim.o
    0x080025fa   0x00000062   Code   RO         3299    i.HAL_UART_Init     stm32f1xx_hal_uart.o
    0x0800265c   0x00000080   Code   RO          425    i.HAL_UART_MspInit  usart.o
    0x080026dc   0x000000b2   Code   RO         3307    i.HAL_UART_Transmit  stm32f1xx_hal_uart.o
    0x0800278e   0x00000002   Code   RO          469    i.HardFault_Handler  stm32f1xx_it.o
    0x08002790   0x00000038   Code   RO         3667    i.IIC_Start         oled.o
    0x080027c8   0x0000002c   Code   RO         3668    i.IIC_Stop          oled.o
    0x080027f4   0x00000024   Code   RO         3669    i.IIC_Wait_Ack      oled.o
    0x08002818   0x0000008c   Code   RO          246    i.MX_ADC1_Init      adc.o
    0x080028a4   0x0000002c   Code   RO          286    i.MX_DMA_Init       dma.o
    0x080028d0   0x000000c4   Code   RO          220    i.MX_GPIO_Init      gpio.o
    0x08002994   0x00000040   Code   RO          312    i.MX_I2C1_Init      i2c.o
    0x080029d4   0x000000c8   Code   RO          355    i.MX_TIM1_Init      tim.o
    0x08002a9c   0x00000064   Code   RO          356    i.MX_TIM2_Init      tim.o
    0x08002b00   0x00000098   Code   RO          357    i.MX_TIM3_Init      tim.o
    0x08002b98   0x00000038   Code   RO          426    i.MX_USART1_UART_Init  usart.o
    0x08002bd0   0x00000002   Code   RO          470    i.MemManage_Handler  stm32f1xx_it.o
    0x08002bd2   0x00000002   Code   RO          471    i.NMI_Handler       stm32f1xx_it.o
    0x08002bd4   0x0000003a   Code   RO         3670    i.OLED_Clear        oled.o
    0x08002c0e   0x00000002   PAD
    0x08002c10   0x00000138   Code   RO         3674    i.OLED_Init         oled.o
    0x08002d48   0x0000002a   Code   RO         3676    i.OLED_Set_Pos      oled.o
    0x08002d72   0x00000002   PAD
    0x08002d74   0x00000088   Code   RO         3678    i.OLED_ShowChar     oled.o
    0x08002dfc   0x00000036   Code   RO         3680    i.OLED_ShowString   oled.o
    0x08002e32   0x0000000c   Code   RO         3681    i.OLED_WR_Byte      oled.o
    0x08002e3e   0x00000002   Code   RO          472    i.PendSV_Handler    stm32f1xx_it.o
    0x08002e40   0x00000002   Code   RO          473    i.SVC_Handler       stm32f1xx_it.o
    0x08002e42   0x00000006   Code   RO          359    i.Set_Tim3_Duty     tim.o
    0x08002e48   0x00000004   Code   RO          474    i.SysTick_Handler   stm32f1xx_it.o
    0x08002e4c   0x00000078   Code   RO           18    i.SystemClock_Config  main.o
    0x08002ec4   0x00000002   Code   RO         3628    i.SystemInit        system_stm32f1xx.o
    0x08002ec6   0x00000002   PAD
    0x08002ec8   0x0000000c   Code   RO          475    i.TIM2_IRQHandler   stm32f1xx_it.o
    0x08002ed4   0x0000006c   Code   RO         2392    i.TIM_Base_SetConfig  stm32f1xx_hal_tim.o
    0x08002f40   0x0000001a   Code   RO         2393    i.TIM_CCxChannelCmd  stm32f1xx_hal_tim.o
    0x08002f5a   0x00000014   Code   RO         2403    i.TIM_ETR_SetConfig  stm32f1xx_hal_tim.o
    0x08002f6e   0x00000010   Code   RO         2404    i.TIM_ITRx_SetConfig  stm32f1xx_hal_tim.o
    0x08002f7e   0x00000002   PAD
    0x08002f80   0x00000050   Code   RO         2405    i.TIM_OC1_SetConfig  stm32f1xx_hal_tim.o
    0x08002fd0   0x00000058   Code   RO         2406    i.TIM_OC2_SetConfig  stm32f1xx_hal_tim.o
    0x08003028   0x00000058   Code   RO         2407    i.TIM_OC3_SetConfig  stm32f1xx_hal_tim.o
    0x08003080   0x00000044   Code   RO         2408    i.TIM_OC4_SetConfig  stm32f1xx_hal_tim.o
    0x080030c4   0x00000022   Code   RO         2410    i.TIM_TI1_ConfigInputStage  stm32f1xx_hal_tim.o
    0x080030e6   0x00000024   Code   RO         2412    i.TIM_TI2_ConfigInputStage  stm32f1xx_hal_tim.o
    0x0800310a   0x00000002   PAD
    0x0800310c   0x000000b8   Code   RO         3325    i.UART_SetConfig    stm32f1xx_hal_uart.o
    0x080031c4   0x00000064   Code   RO         3328    i.UART_WaitOnFlagUntilTimeout  stm32f1xx_hal_uart.o
    0x08003228   0x00000002   Code   RO          476    i.UsageFault_Handler  stm32f1xx_it.o
    0x0800322a   0x00000002   PAD
    0x0800322c   0x0000005c   Code   RO         3682    i.Write_IIC_Byte    oled.o
    0x08003288   0x0000002e   Code   RO         3683    i.Write_IIC_Command  oled.o
    0x080032b6   0x0000002e   Code   RO         3684    i.Write_IIC_Data    oled.o
    0x080032e4   0x00000020   Code   RO         4095    i.__0printf         mc_w.l(printfa.o)
    0x08003304   0x00000028   Code   RO         4097    i.__0sprintf        mc_w.l(printfa.o)
    0x0800332c   0x00000020   Code   RO         1378    i.__NVIC_SetPriority  stm32f1xx_hal_cortex.o
    0x0800334c   0x0000000e   Code   RO         4185    i.__scatterload_copy  mc_w.l(handlers.o)
    0x0800335a   0x00000002   Code   RO         4186    i.__scatterload_null  mc_w.l(handlers.o)
    0x0800335c   0x0000000e   Code   RO         4187    i.__scatterload_zeroinit  mc_w.l(handlers.o)
    0x0800336a   0x00000002   PAD
    0x0800336c   0x00000164   Code   RO         4102    i._fp_digits        mc_w.l(printfa.o)
    0x080034d0   0x000006dc   Code   RO         4103    i._printf_core      mc_w.l(printfa.o)
    0x08003bac   0x00000024   Code   RO         4104    i._printf_post_padding  mc_w.l(printfa.o)
    0x08003bd0   0x0000002e   Code   RO         4105    i._printf_pre_padding  mc_w.l(printfa.o)
    0x08003bfe   0x0000000a   Code   RO         4107    i._sputc            mc_w.l(printfa.o)
    0x08003c08   0x0000001c   Code   RO           20    i.fputc             main.o
    0x08003c24   0x00000118   Code   RO           21    i.main              main.o
    0x08003d3c   0x00000010   Data   RO         3629    .constdata          system_stm32f1xx.o
    0x08003d4c   0x00000008   Data   RO         3630    .constdata          system_stm32f1xx.o
    0x08003d54   0x00000818   Data   RO         3687    .constdata          oled.o
    0x0800456c   0x00000020   Data   RO         4183    Region$$Table       anon$$obj.o


    Execution Region RW_IRAM1 (Base: 0x20000000, Size: 0x00000650, Max: 0x00005000, ABSOLUTE)

    Base Addr    Size         Type   Attr      Idx    E Section Name        Object

    0x20000000   0x00000038   Data   RW           23    .data               main.o
    0x20000038   0x0000000c   Data   RW          915    .data               stm32f1xx_hal.o
    0x20000044   0x00000004   Data   RW         3631    .data               system_stm32f1xx.o
    0x20000048   0x00000004   Data   RW         4161    .data               mc_w.l(stdout.o)
    0x2000004c   0x0000001c   Zero   RW           22    .bss                main.o
    0x20000068   0x00000074   Zero   RW          247    .bss                adc.o
    0x200000dc   0x00000054   Zero   RW          313    .bss                i2c.o
    0x20000130   0x000000d8   Zero   RW          360    .bss                tim.o
    0x20000208   0x00000044   Zero   RW          427    .bss                usart.o
    0x2000024c   0x00000004   PAD
    0x20000250   0x00000400   Zero   RW            1    STACK               startup_stm32f103xb.o


==============================================================================

Image component sizes


      Code (inc. data)   RO Data    RW Data    ZI Data      Debug   Object Name

       284         30          0          0        116       1723   adc.o
        44          4          0          0          0        678   dma.o
       196         18          0          0          0        891   gpio.o
       176         30          0          0         84       1497   i2c.o
       832        140          0         56         28     460919   main.o
       934         38       2072          0          0       7742   oled.o
        90          0          0          0          0        761   pid.o
        36          8        236          0       1024        764   startup_stm32f103xb.o
       164         28          0         12          0       6305   stm32f1xx_hal.o
      1134         56          0          0          0       9190   stm32f1xx_hal_adc.o
       216          6          0          0          0       1586   stm32f1xx_hal_adc_ex.o
       198         14          0          0          0      29483   stm32f1xx_hal_cortex.o
       586         32          0          0          0       3903   stm32f1xx_hal_dma.o
       490         34          0          0          0       3096   stm32f1xx_hal_gpio.o
       392         16          0          0          0       3255   stm32f1xx_hal_i2c.o
        60          8          0          0          0        790   stm32f1xx_hal_msp.o
      1272        100          0          0          0       5560   stm32f1xx_hal_rcc.o
       436         46          0          0          0       2737   stm32f1xx_hal_rcc_ex.o
      1768         58          0          0          0      17082   stm32f1xx_hal_tim.o
       192         12          0          0          0       3473   stm32f1xx_hal_tim_ex.o
       560          6          0          0          0       4252   stm32f1xx_hal_uart.o
        44         12          0          0          0       4303   stm32f1xx_it.o
         2          0         24          4          0       1055   system_stm32f1xx.o
       670         50          0          0        216       4026   tim.o
       184         24          0          0         68       1546   usart.o

    ----------------------------------------------------------------------
     10984        770       2364         72       1540     576617   Object Totals
         0          0         32          0          0          0   (incl. Generated)
        24          0          0          0          4          0   (incl. Padding)

    ----------------------------------------------------------------------

      Code (inc. data)   RO Data    RW Data    ZI Data      Debug   Library Member Name

         0          0          0          0          0          0   entry.o
         0          0          0          0          0          0   entry10a.o
         0          0          0          0          0          0   entry11a.o
         8          4          0          0          0          0   entry2.o
         4          0          0          0          0          0   entry5.o
         0          0          0          0          0          0   entry7b.o
         0          0          0          0          0          0   entry8b.o
         8          4          0          0          0          0   entry9a.o
        30          0          0          0          0          0   handlers.o
        36          8          0          0          0         68   init.o
         0          0          0          0          0          0   iusefp.o
        30          0          0          0          0         68   llshl.o
        36          0          0          0          0         68   llsshr.o
        32          0          0          0          0         68   llushr.o
        36          0          0          0          0        108   memseta.o
      2276         96          0          0          0        596   printfa.o
         0          0          0          4          0          0   stdout.o
        44          0          0          0          0         80   uidiv.o
        98          0          0          0          0         92   uldiv.o
        48          0          0          0          0         68   cdrcmple.o
        56          0          0          0          0         88   d2f.o
       334          0          0          0          0        148   dadd.o
       222          0          0          0          0        100   ddiv.o
       186          0          0          0          0        176   depilogue.o
        48          0          0          0          0         68   dfixul.o
        26          0          0          0          0         76   dfltui.o
       228          0          0          0          0         96   dmul.o
        46          0          0          0          0         80   dscalb.o
        38          0          0          0          0         68   f2d.o
       176          0          0          0          0        140   fadd.o
       124          0          0          0          0         88   fdiv.o
       110          0          0          0          0        168   fepilogue.o
        50          0          0          0          0         68   ffixi.o
       100          0          0          0          0         76   fmul.o
        24          0          0          0          0         68   fscalb.o

    ----------------------------------------------------------------------
      4456        112          0          4          0       2724   Library Totals
         2          0          0          0          0          0   (incl. Padding)

    ----------------------------------------------------------------------

      Code (inc. data)   RO Data    RW Data    ZI Data      Debug   Library Name

      2638        112          0          4          0       1148   mc_w.l
      1816          0          0          0          0       1576   mf_w.l

    ----------------------------------------------------------------------
      4456        112          0          4          0       2724   Library Totals

    ----------------------------------------------------------------------

==============================================================================


      Code (inc. data)   RO Data    RW Data    ZI Data      Debug   

     15440        882       2364         76       1540     572421   Grand Totals
     15440        882       2364         76       1540     572421   ELF Image Totals
     15440        882       2364         76          0          0   ROM Totals

==============================================================================

    Total RO  Size (Code + RO Data)                17804 (  17.39kB)
    Total RW  Size (RW Data + ZI Data)              1616 (   1.58kB)
    Total ROM Size (Code + RO Data + RW Data)      17880 (  17.46kB)

==============================================================================

